{
  "contractName": "Presale",
  "abi": [
    {
      "inputs": [
        {
          "internalType": "address",
          "name": "_tetherContract",
          "type": "address"
        },
        {
          "internalType": "address",
          "name": "_tokenContract",
          "type": "address"
        }
      ],
      "stateMutability": "nonpayable",
      "type": "constructor"
    },
    {
      "inputs": [],
      "name": "Tether",
      "outputs": [
        {
          "internalType": "contract ERC",
          "name": "",
          "type": "address"
        }
      ],
      "stateMutability": "view",
      "type": "function"
    },
    {
      "inputs": [],
      "name": "Token",
      "outputs": [
        {
          "internalType": "contract ERC",
          "name": "",
          "type": "address"
        }
      ],
      "stateMutability": "view",
      "type": "function"
    },
    {
      "inputs": [
        {
          "internalType": "address",
          "name": "_user",
          "type": "address"
        }
      ],
      "name": "fetchPurchaseHistory",
      "outputs": [
        {
          "internalType": "uint256[]",
          "name": "timeStamp",
          "type": "uint256[]"
        },
        {
          "internalType": "uint256[]",
          "name": "paymentMethod",
          "type": "uint256[]"
        },
        {
          "internalType": "uint256[]",
          "name": "amount",
          "type": "uint256[]"
        }
      ],
      "stateMutability": "view",
      "type": "function"
    },
    {
      "inputs": [],
      "name": "fetchEthPrice",
      "outputs": [
        {
          "internalType": "int256",
          "name": "",
          "type": "int256"
        }
      ],
      "stateMutability": "view",
      "type": "function"
    }
  ],
  "bytecode": "0x608060405234801561001057600080fd5b506040516104ad3803806104ad8339818101604052604081101561003357600080fd5b50805160209091015160008054600160a060020a03938416600160a060020a031991821617909155600180549390921692811692909217905560028054909116738468b2bdce073a157e560aa4d9ccf6db1db985071790556104138061009a6000396000f3fe608060405234801561001057600080fd5b5060043610610068577c0100000000000000000000000000000000000000000000000000000000600035046337947c29811461006d578063b4e002241461017e578063c2412676146101af578063f2041b38146101b7575b600080fd5b6100a06004803603602081101561008357600080fd5b503573ffffffffffffffffffffffffffffffffffffffff166101d1565b60405180806020018060200180602001848103845287818151815260200191508051906020019060200280838360005b838110156100e85781810151838201526020016100d0565b50505050905001848103835286818151815260200191508051906020019060200280838360005b8381101561012757818101518382015260200161010f565b50505050905001848103825285818151815260200191508051906020019060200280838360005b8381101561016657818101518382015260200161014e565b50505050905001965050505050505060405180910390f35b610186610309565b6040805173ffffffffffffffffffffffffffffffffffffffff9092168252519081900360200190f35b610186610325565b6101bf610341565b60408051918252519081900360200190f35b73ffffffffffffffffffffffffffffffffffffffff811660009081526003602090815260409182902080548351818402810184019094528084526060938493849392839260018401926002850192859183018282801561025057602002820191906000526020600020905b81548152602001906001019080831161023c575b50505050509250818054806020026020016040519081016040528092919081815260200182805480156102a257602002820191906000526020600020905b81548152602001906001019080831161028e575b50505050509150808054806020026020016040519081016040528092919081815260200182805480156102f457602002820191906000526020600020905b8154815260200190600101908083116102e0575b50505050509050935093509350509193909250565b60005473ffffffffffffffffffffffffffffffffffffffff1681565b60015473ffffffffffffffffffffffffffffffffffffffff1681565b600254604080517f50d25bcd000000000000000000000000000000000000000000000000000000008152905160009273ffffffffffffffffffffffffffffffffffffffff16916350d25bcd916004808301926020929190829003018186803b1580156103ac57600080fd5b505afa1580156103c0573d6000803e3d6000fd5b505050506040513d60208110156103d657600080fd5b505190509056fea26469706673582212201929402fc676f605c194704629e7e3a9c943f63889c1fd6daaeb6ac1e0a0c44264736f6c63430007050033",
  "immutableReferences": {},
  "source": "// SPDX-License-Identifier: UNLICENSED\npragma solidity <=0.7.5;\n\ninterface ERC {\n    event Approval(address indexed owner, address indexed spender, uint value);\n    event Transfer(address indexed from, address indexed to, uint value);\n\n    function balanceOf(address owner) external view returns (uint);\n    function allowance(address owner, address spender) external view returns (uint);\n\n    function transfer(address to, uint value) external returns (bool);\n    function transferFrom(address from, address to, uint value) external returns (bool);\n}\n\ninterface AggregatorInterface {\n  function latestAnswer() external view returns (int256);\n  function latestTimestamp() external view returns (uint256);\n  function latestRound() external view returns (uint256);\n  function getAnswer(uint256 roundId) external view returns (int256);\n  function getTimestamp(uint256 roundId) external view returns (uint256);\n\n  event AnswerUpdated(int256 indexed current, uint256 indexed roundId, uint256 updatedAt);\n  event NewRound(uint256 indexed roundId, address indexed startedBy, uint256 startedAt);\n}\n\ncontract Presale{\n\n    ERC public Tether;\n    ERC public Token;\n    \n    AggregatorInterface internal ref;\n\n    struct History{\n        uint256[] timeStamp;\n        uint256[] paymentMethod;\n        uint256[] amount;\n    }\n\n    mapping(address => History) history;\n\n    constructor(address _tetherContract, address _tokenContract){\n        Tether = ERC(_tetherContract);\n        Token = ERC(_tokenContract);\n        ref = AggregatorInterface(0x8468b2bDCE073A157E560AA4D9CcF6dB1DB98507);\n    }\n\n    /**\n       @dev returns the purchase history of a user.\n       Pass the user address to the function arguments.\n     */\n\n    function fetchPurchaseHistory(address _user) public view returns(\n        uint256[] memory timeStamp,\n        uint256[] memory paymentMethod,\n        uint256[] memory amount\n    ){\n        History storage h = history[_user];\n        return (\n            h.timeStamp,\n            h.paymentMethod,\n            h.amount\n        );\n    }\n\n    function fetchEthPrice() public view returns(int256){\n        return ref.latestAnswer();\n    }\n\n}\n",
  "sourcePath": "/Users/sujith/Desktop/Fiverr/Friedrick/contract/contracts/PreSale.sol",
  "compiler": {
    "name": "solc",
    "version": "0.7.5+commit.eb77ed08.Emscripten.clang"
  },
  "schemaVersion": "3.3.0",
  "updatedAt": "2021-01-03T06:38:01.719Z",
  "devdoc": {
    "kind": "dev",
    "methods": {
      "fetchPurchaseHistory(address)": {
        "details": "returns the purchase history of a user. Pass the user address to the function arguments."
      }
    },
    "version": 1
  },
  "userdoc": {
    "kind": "user",
    "methods": {},
    "version": 1
  }
}